{
  "_format": "hh-sol-artifact-1",
  "contractName": "GameManager",
  "sourceName": "contracts/GameManager.sol",
  "abi": [
    {
      "inputs": [
        {
          "internalType": "address",
          "name": "_monopolyToken",
          "type": "address"
        },
        {
          "internalType": "address",
          "name": "_propertyNFT",
          "type": "address"
        }
      ],
      "stateMutability": "nonpayable",
      "type": "constructor"
    },
    {
      "inputs": [],
      "name": "CannotTradeWithSelf",
      "type": "error"
    },
    {
      "inputs": [
        {
          "internalType": "uint256",
          "name": "remainingTime",
          "type": "uint256"
        }
      ],
      "name": "CooldownActive",
      "type": "error"
    },
    {
      "inputs": [
        {
          "internalType": "uint256",
          "name": "required",
          "type": "uint256"
        },
        {
          "internalType": "uint256",
          "name": "available",
          "type": "uint256"
        }
      ],
      "name": "InsufficientBalance",
      "type": "error"
    },
    {
      "inputs": [
        {
          "internalType": "uint256",
          "name": "remainingTime",
          "type": "uint256"
        }
      ],
      "name": "LockActive",
      "type": "error"
    },
    {
      "inputs": [],
      "name": "MaxPropertiesReached",
      "type": "error"
    },
    {
      "inputs": [],
      "name": "NotOwner",
      "type": "error"
    },
    {
      "inputs": [
        {
          "internalType": "uint256",
          "name": "propertyId",
          "type": "uint256"
        }
      ],
      "name": "NotPropertyOwner",
      "type": "error"
    },
    {
      "inputs": [],
      "name": "PlayerAlreadyRegistered",
      "type": "error"
    },
    {
      "inputs": [
        {
          "internalType": "uint256",
          "name": "propertyId",
          "type": "uint256"
        }
      ],
      "name": "PropertyNotAvailable",
      "type": "error"
    },
    {
      "inputs": [
        {
          "internalType": "uint256",
          "name": "tradeId",
          "type": "uint256"
        }
      ],
      "name": "TradeOfferNotForYou",
      "type": "error"
    },
    {
      "inputs": [
        {
          "internalType": "uint256",
          "name": "tradeId",
          "type": "uint256"
        }
      ],
      "name": "TradeOfferNotFound",
      "type": "error"
    },
    {
      "anonymous": false,
      "inputs": [
        {
          "indexed": true,
          "internalType": "address",
          "name": "player",
          "type": "address"
        }
      ],
      "name": "PlayerRegistered",
      "type": "event"
    },
    {
      "anonymous": false,
      "inputs": [
        {
          "indexed": true,
          "internalType": "address",
          "name": "buyer",
          "type": "address"
        },
        {
          "indexed": true,
          "internalType": "uint256",
          "name": "propertyId",
          "type": "uint256"
        },
        {
          "indexed": false,
          "internalType": "uint256",
          "name": "price",
          "type": "uint256"
        }
      ],
      "name": "PropertyPurchased",
      "type": "event"
    },
    {
      "anonymous": false,
      "inputs": [
        {
          "indexed": true,
          "internalType": "address",
          "name": "from",
          "type": "address"
        },
        {
          "indexed": true,
          "internalType": "address",
          "name": "to",
          "type": "address"
        },
        {
          "indexed": true,
          "internalType": "uint256",
          "name": "propertyId",
          "type": "uint256"
        },
        {
          "indexed": false,
          "internalType": "uint256",
          "name": "amount",
          "type": "uint256"
        }
      ],
      "name": "RentPaid",
      "type": "event"
    },
    {
      "anonymous": false,
      "inputs": [
        {
          "indexed": true,
          "internalType": "uint256",
          "name": "tradeId",
          "type": "uint256"
        },
        {
          "indexed": true,
          "internalType": "address",
          "name": "from",
          "type": "address"
        },
        {
          "indexed": true,
          "internalType": "address",
          "name": "to",
          "type": "address"
        },
        {
          "indexed": false,
          "internalType": "uint256",
          "name": "propertyId",
          "type": "uint256"
        }
      ],
      "name": "TradeOfferAccepted",
      "type": "event"
    },
    {
      "anonymous": false,
      "inputs": [
        {
          "indexed": true,
          "internalType": "uint256",
          "name": "tradeId",
          "type": "uint256"
        }
      ],
      "name": "TradeOfferCancelled",
      "type": "event"
    },
    {
      "anonymous": false,
      "inputs": [
        {
          "indexed": true,
          "internalType": "uint256",
          "name": "tradeId",
          "type": "uint256"
        },
        {
          "indexed": true,
          "internalType": "address",
          "name": "from",
          "type": "address"
        },
        {
          "indexed": true,
          "internalType": "address",
          "name": "to",
          "type": "address"
        },
        {
          "indexed": false,
          "internalType": "uint256",
          "name": "propertyId",
          "type": "uint256"
        },
        {
          "indexed": false,
          "internalType": "uint256",
          "name": "price",
          "type": "uint256"
        }
      ],
      "name": "TradeOfferCreated",
      "type": "event"
    },
    {
      "inputs": [],
      "name": "COOLDOWN_TIME",
      "outputs": [
        {
          "internalType": "uint256",
          "name": "",
          "type": "uint256"
        }
      ],
      "stateMutability": "view",
      "type": "function"
    },
    {
      "inputs": [],
      "name": "LOCK_TIME",
      "outputs": [
        {
          "internalType": "uint256",
          "name": "",
          "type": "uint256"
        }
      ],
      "stateMutability": "view",
      "type": "function"
    },
    {
      "inputs": [
        {
          "internalType": "uint256",
          "name": "tradeId",
          "type": "uint256"
        }
      ],
      "name": "acceptTradeOffer",
      "outputs": [],
      "stateMutability": "nonpayable",
      "type": "function"
    },
    {
      "inputs": [
        {
          "internalType": "uint256",
          "name": "propertyId",
          "type": "uint256"
        },
        {
          "internalType": "uint256",
          "name": "price",
          "type": "uint256"
        }
      ],
      "name": "buyPropertyFromBank",
      "outputs": [],
      "stateMutability": "nonpayable",
      "type": "function"
    },
    {
      "inputs": [
        {
          "internalType": "uint256",
          "name": "tradeId",
          "type": "uint256"
        }
      ],
      "name": "cancelTradeOffer",
      "outputs": [],
      "stateMutability": "nonpayable",
      "type": "function"
    },
    {
      "inputs": [
        {
          "internalType": "address",
          "name": "to",
          "type": "address"
        },
        {
          "internalType": "uint256",
          "name": "propertyId",
          "type": "uint256"
        },
        {
          "internalType": "uint256",
          "name": "price",
          "type": "uint256"
        }
      ],
      "name": "createTradeOffer",
      "outputs": [
        {
          "internalType": "uint256",
          "name": "",
          "type": "uint256"
        }
      ],
      "stateMutability": "nonpayable",
      "type": "function"
    },
    {
      "inputs": [
        {
          "internalType": "address",
          "name": "player",
          "type": "address"
        }
      ],
      "name": "getCooldownRemaining",
      "outputs": [
        {
          "internalType": "uint256",
          "name": "",
          "type": "uint256"
        }
      ],
      "stateMutability": "view",
      "type": "function"
    },
    {
      "inputs": [
        {
          "internalType": "address",
          "name": "player",
          "type": "address"
        }
      ],
      "name": "getLockRemaining",
      "outputs": [
        {
          "internalType": "uint256",
          "name": "",
          "type": "uint256"
        }
      ],
      "stateMutability": "view",
      "type": "function"
    },
    {
      "inputs": [
        {
          "internalType": "address",
          "name": "player",
          "type": "address"
        }
      ],
      "name": "getPlayerBalance",
      "outputs": [
        {
          "internalType": "uint256",
          "name": "",
          "type": "uint256"
        }
      ],
      "stateMutability": "view",
      "type": "function"
    },
    {
      "inputs": [
        {
          "internalType": "address",
          "name": "player",
          "type": "address"
        }
      ],
      "name": "getPlayerPropertyCount",
      "outputs": [
        {
          "internalType": "uint256",
          "name": "",
          "type": "uint256"
        }
      ],
      "stateMutability": "view",
      "type": "function"
    },
    {
      "inputs": [
        {
          "internalType": "uint256",
          "name": "tradeId",
          "type": "uint256"
        }
      ],
      "name": "getTradeOffer",
      "outputs": [
        {
          "components": [
            {
              "internalType": "address",
              "name": "from",
              "type": "address"
            },
            {
              "internalType": "address",
              "name": "to",
              "type": "address"
            },
            {
              "internalType": "uint256",
              "name": "propertyId",
              "type": "uint256"
            },
            {
              "internalType": "uint256",
              "name": "price",
              "type": "uint256"
            },
            {
              "internalType": "bool",
              "name": "active",
              "type": "bool"
            },
            {
              "internalType": "uint256",
              "name": "createdAt",
              "type": "uint256"
            }
          ],
          "internalType": "struct GameManager.TradeOffer",
          "name": "",
          "type": "tuple"
        }
      ],
      "stateMutability": "view",
      "type": "function"
    },
    {
      "inputs": [
        {
          "internalType": "address",
          "name": "player",
          "type": "address"
        }
      ],
      "name": "isPlayerRegistered",
      "outputs": [
        {
          "internalType": "bool",
          "name": "",
          "type": "bool"
        }
      ],
      "stateMutability": "view",
      "type": "function"
    },
    {
      "inputs": [
        {
          "internalType": "address",
          "name": "",
          "type": "address"
        }
      ],
      "name": "lastTransactionTime",
      "outputs": [
        {
          "internalType": "uint256",
          "name": "",
          "type": "uint256"
        }
      ],
      "stateMutability": "view",
      "type": "function"
    },
    {
      "inputs": [
        {
          "internalType": "address",
          "name": "",
          "type": "address"
        }
      ],
      "name": "lockUntil",
      "outputs": [
        {
          "internalType": "uint256",
          "name": "",
          "type": "uint256"
        }
      ],
      "stateMutability": "view",
      "type": "function"
    },
    {
      "inputs": [
        {
          "internalType": "address",
          "name": "to",
          "type": "address"
        },
        {
          "internalType": "string",
          "name": "name",
          "type": "string"
        },
        {
          "internalType": "enum PropertyNFT.PropertyType",
          "name": "propertyType",
          "type": "uint8"
        },
        {
          "internalType": "uint256",
          "name": "value",
          "type": "uint256"
        },
        {
          "internalType": "uint256",
          "name": "rent",
          "type": "uint256"
        },
        {
          "internalType": "string",
          "name": "uri",
          "type": "string"
        }
      ],
      "name": "mintProperty",
      "outputs": [
        {
          "internalType": "uint256",
          "name": "",
          "type": "uint256"
        }
      ],
      "stateMutability": "nonpayable",
      "type": "function"
    },
    {
      "inputs": [],
      "name": "monopolyToken",
      "outputs": [
        {
          "internalType": "contract MonopolyToken",
          "name": "",
          "type": "address"
        }
      ],
      "stateMutability": "view",
      "type": "function"
    },
    {
      "inputs": [],
      "name": "nextTradeId",
      "outputs": [
        {
          "internalType": "uint256",
          "name": "",
          "type": "uint256"
        }
      ],
      "stateMutability": "view",
      "type": "function"
    },
    {
      "inputs": [],
      "name": "owner",
      "outputs": [
        {
          "internalType": "address",
          "name": "",
          "type": "address"
        }
      ],
      "stateMutability": "view",
      "type": "function"
    },
    {
      "inputs": [
        {
          "internalType": "uint256",
          "name": "propertyId",
          "type": "uint256"
        }
      ],
      "name": "payRent",
      "outputs": [],
      "stateMutability": "nonpayable",
      "type": "function"
    },
    {
      "inputs": [],
      "name": "propertyNFT",
      "outputs": [
        {
          "internalType": "contract PropertyNFT",
          "name": "",
          "type": "address"
        }
      ],
      "stateMutability": "view",
      "type": "function"
    },
    {
      "inputs": [],
      "name": "registerPlayer",
      "outputs": [],
      "stateMutability": "nonpayable",
      "type": "function"
    },
    {
      "inputs": [
        {
          "internalType": "uint256",
          "name": "",
          "type": "uint256"
        }
      ],
      "name": "tradeOffers",
      "outputs": [
        {
          "internalType": "address",
          "name": "from",
          "type": "address"
        },
        {
          "internalType": "address",
          "name": "to",
          "type": "address"
        },
        {
          "internalType": "uint256",
          "name": "propertyId",
          "type": "uint256"
        },
        {
          "internalType": "uint256",
          "name": "price",
          "type": "uint256"
        },
        {
          "internalType": "bool",
          "name": "active",
          "type": "bool"
        },
        {
          "internalType": "uint256",
          "name": "createdAt",
          "type": "uint256"
        }
      ],
      "stateMutability": "view",
      "type": "function"
    }
  ],
  "bytecode": "0x6080604052348015600f57600080fd5b50604051611ba5380380611ba5833981016040819052602c916087565b600080546001600160a01b039384166001600160a01b031991821617909155600180549290931691811691909117909155600280549091163317905560b5565b80516001600160a01b0381168114608257600080fd5b919050565b60008060408385031215609957600080fd5b60a083606c565b915060ac60208401606c565b90509250929050565b611ae1806100c46000396000f3fe608060405234801561001057600080fd5b50600436106101425760003560e01c8063813ad083116100b8578063b831e5e81161007c578063b831e5e8146103f3578063d9e8843f14610406578063e2734c9314610419578063e75b20731461042c578063eba74ee91461044c578063ed074a171461046c57600080fd5b8063813ad0831461039e5780638da5cb5b146103a7578063aa2b2bd9146103ba578063aa47735f146103cd578063afe309d6146103e057600080fd5b80635aa078561161010a5780635aa07856146102545780635b46900c146102675780635c07a4b01461027a5780635d5b902114610284578063673ac899146102975780637d2632451461039557600080fd5b80631417b82a146101475780631c1b22741461016f57806320a564db1461019057806337f7683814610220578063413d9c3a1461024b575b600080fd5b61015a610155366004611521565b61047f565b60405190151581526020015b60405180910390f35b61018261017d366004611521565b6104f4565b604051908152602001610166565b6101e661019e36600461153e565b60056020819052600091825260409091208054600182015460028301546003840154600485015494909501546001600160a01b03938416959290931693909260ff9091169086565b604080516001600160a01b0397881681529690951660208701529385019290925260608401521515608083015260a082015260c001610166565b600154610233906001600160a01b031681565b6040516001600160a01b039091168152602001610166565b61018261025881565b600054610233906001600160a01b031681565b610182610275366004611521565b610564565b6102826105c0565b005b61028261029236600461153e565b6106d4565b61033e6102a536600461153e565b6040805160c081018252600080825260208201819052918101829052606081018290526080810182905260a081019190915250600090815260056020818152604092839020835160c08101855281546001600160a01b0390811682526001830154169281019290925260028101549382019390935260038301546060820152600483015460ff161515608082015291015460a082015290565b604051610166919081516001600160a01b03908116825260208084015190911690820152604080830151908201526060808301519082015260808083015115159082015260a0918201519181019190915260c00190565b61018261012c81565b61018260065481565b600254610233906001600160a01b031681565b6102826103c836600461153e565b610aa4565b6101826103db366004611521565b610b47565b6101826103ee366004611652565b610b91565b6102826104013660046116f2565b610c47565b61028261041436600461153e565b610fcc565b610182610427366004611521565b611292565b61018261043a366004611521565b60036020526000908152604090205481565b61018261045a366004611521565b60046020526000908152604090205481565b61018261047a366004611714565b6112c5565b60008054604051630a0bdc1560e11b81526001600160a01b03848116600483015290911690631417b82a90602401602060405180830381865afa1580156104ca573d6000803e3d6000fd5b505050506040513d601f19601f820116820180604052508101906104ee9190611749565b92915050565b6001546040516370a0823160e01b81526001600160a01b03838116600483015260009216906370a08231906024015b602060405180830381865afa158015610540573d6000803e3d6000fd5b505050506040513d601f19601f820116820180604052508101906104ee919061176b565b6001600160a01b03811660009081526003602052604081205480820361058d5750600092915050565b600061059b61012c8361179a565b90508042106105ae575060009392505050565b6105b842826117ad565b949350505050565b600054604051630a0bdc1560e11b81523360048201526001600160a01b0390911690631417b82a90602401602060405180830381865afa158015610608573d6000803e3d6000fd5b505050506040513d601f19601f8201168201806040525081019061062c9190611749565b1561064a5760405163ab5ac72b60e01b815260040160405180910390fd5b600054604051636b5cc6d960e01b81523360048201526001600160a01b0390911690636b5cc6d990602401600060405180830381600087803b15801561068f57600080fd5b505af11580156106a3573d6000803e3d6000fd5b50506040513392507f8cd3331e32cec677d80b82cf0f71496605e7ed6ff864a3ccedc7d5d11d838c839150600090a2565b3360009081526003602052604090205480158015906106fd57506106fa61012c8261179a565b42105b1561073e574261070f61012c8361179a565b61071991906117ad565b60405163c1ab61a160e01b815260040161073591815260200190565b60405180910390fd5b33600090815260046020526040902054801580159061075c57508042105b156107875761076b42826117ad565b6040516330724f9f60e01b815260040161073591815260200190565b6000838152600560205260409020600481015460ff166107bd57604051637e444cef60e11b815260048101859052602401610735565b60018101546001600160a01b031633146107ed576040516319dd752560e21b815260048101859052602401610735565b600154604051630e60326d60e21b81523360048201526001600160a01b0390911690633980c9b490602401602060405180830381865afa158015610835573d6000803e3d6000fd5b505050506040513d601f19601f820116820180604052508101906108599190611749565b6108765760405163e4a0608d60e01b815260040160405180910390fd5b600080546040516370a0823160e01b81523360048201526001600160a01b03909116906370a0823190602401602060405180830381865afa1580156108bf573d6000803e3d6000fd5b505050506040513d601f19601f820116820180604052508101906108e3919061176b565b9050816003015481101561091a57600382015460405163cf47918160e01b8152600481019190915260248101829052604401610735565b60048201805460ff191690556003820154156109b157600054825460038401546040516323b872dd60e01b81526001600160a01b03938416936323b872dd9361096c93339392909116916004016117c0565b6020604051808303816000875af115801561098b573d6000803e3d6000fd5b505050506040513d601f19601f820116820180604052508101906109af9190611749565b505b600154825460028401546040516323b872dd60e01b81526001600160a01b03938416936323b872dd936109ec939116913391906004016117c0565b600060405180830381600087803b158015610a0657600080fd5b505af1158015610a1a573d6000803e3d6000fd5b50503360009081526003602052604090204290819055610a3f9250610258915061179a565b336000818152600460209081526040918290209390935584546002860154915191825291926001600160a01b039092169188917f82ccefeff8613c83f9fdfbf520b755136f8f30cffa438c3b8096c9332b0d7314910160405180910390a45050505050565b6000818152600560205260409020600481015460ff16610ada57604051637e444cef60e11b815260048101839052602401610735565b80546001600160a01b03163314610b0c578060020154604051633bc03b8960e21b815260040161073591815260200190565b60048101805460ff1916905560405182907fc754a4b878552d0fc775d075fea1dc22f51657a9ef39ede106fe10828e7b8caa90600090a25050565b6001600160a01b038116600090815260046020526040812054808203610b705750600092915050565b804210610b805750600092915050565b610b8a42826117ad565b9392505050565b6002546000906001600160a01b03163314610bbf576040516330cd747160e01b815260040160405180910390fd5b6001546040516357f184eb60e11b81526001600160a01b039091169063afe309d690610bf9908a908a908a908a908a908a90600401611834565b6020604051808303816000875af1158015610c18573d6000803e3d6000fd5b505050506040513d601f19601f82011682018060405250810190610c3c919061176b565b979650505050505050565b336000908152600360205260409020548015801590610c705750610c6d61012c8261179a565b42105b15610c82574261070f61012c8361179a565b336000908152600460205260409020548015801590610ca057508042105b15610caf5761076b42826117ad565b600154604051630e60326d60e21b81523360048201526001600160a01b0390911690633980c9b490602401602060405180830381865afa158015610cf7573d6000803e3d6000fd5b505050506040513d601f19601f82011682018060405250810190610d1b9190611749565b610d385760405163e4a0608d60e01b815260040160405180910390fd5b6001546040516331a9108f60e11b8152600481018690526000916001600160a01b031690636352211e90602401602060405180830381865afa158015610d82573d6000803e3d6000fd5b505050506040513d601f19601f82011682018060405250810190610da691906118a7565b6002549091506001600160a01b03808316911614610dda576040516303165bd360e21b815260048101869052602401610735565b600080546040516370a0823160e01b81523360048201526001600160a01b03909116906370a0823190602401602060405180830381865afa158015610e23573d6000803e3d6000fd5b505050506040513d601f19601f82011682018060405250810190610e47919061176b565b905084811015610e745760405163cf47918160e01b81526004810186905260248101829052604401610735565b6000546002546040516323b872dd60e01b81526001600160a01b03928316926323b872dd92610ead923392909116908a906004016117c0565b6020604051808303816000875af1158015610ecc573d6000803e3d6000fd5b505050506040513d601f19601f82011682018060405250810190610ef09190611749565b506001546002546040516323b872dd60e01b81526001600160a01b03928316926323b872dd92610f299291169033908b906004016117c0565b600060405180830381600087803b158015610f4357600080fd5b505af1158015610f57573d6000803e3d6000fd5b50503360009081526003602052604090204290819055610f7c9250610258915061179a565b33600081815260046020908152604091829020939093555187815288927f78b956af36d5e8d2905671f28ef5b5fdd0a5f246966477789876fb8e568418b9910160405180910390a3505050505050565b336000908152600360205260409020548015801590610ff55750610ff261012c8261179a565b42105b15611007574261070f61012c8361179a565b6001546040516331a9108f60e11b8152600481018490526000916001600160a01b031690636352211e90602401602060405180830381865afa158015611051573d6000803e3d6000fd5b505050506040513d601f19601f8201168201806040525081019061107591906118a7565b9050336001600160a01b0382160361108c57505050565b6001546040516332665ffb60e01b8152600481018590526000916001600160a01b0316906332665ffb90602401600060405180830381865afa1580156110d6573d6000803e3d6000fd5b505050506040513d6000823e601f3d908101601f191682016040526110fe91908101906119a5565b905060008160600151670de0b6b3a764000061111a9190611a7b565b600080546040516370a0823160e01b815233600482015292935090916001600160a01b03909116906370a0823190602401602060405180830381865afa158015611168573d6000803e3d6000fd5b505050506040513d601f19601f8201168201806040525081019061118c919061176b565b9050818110156111b95760405163cf47918160e01b81526004810183905260248101829052604401610735565b6000546040516323b872dd60e01b81526001600160a01b03909116906323b872dd906111ed903390889087906004016117c0565b6020604051808303816000875af115801561120c573d6000803e3d6000fd5b505050506040513d601f19601f820116820180604052508101906112309190611749565b5033600081815260036020526040908190204290555187916001600160a01b038716917f861b80a1390fd7e043897b094108e6073fdeab18fa15a361bcbc4474f7eedd4b906112829087815260200190565b60405180910390a4505050505050565b600080546040516370a0823160e01b81526001600160a01b038481166004830152909116906370a0823190602401610523565b3360009081526003602052604081205480158015906112ee57506112eb61012c8261179a565b42105b15611300574261070f61012c8361179a565b33600090815260046020526040902054801580159061131e57508042105b1561132d5761076b42826117ad565b336001600160a01b0387160361135657604051634e5ee53960e11b815260040160405180910390fd5b6001546040516331a9108f60e11b8152600481018790526000916001600160a01b031690636352211e90602401602060405180830381865afa1580156113a0573d6000803e3d6000fd5b505050506040513d601f19601f820116820180604052508101906113c491906118a7565b90506001600160a01b03811633146113f257604051633bc03b8960e21b815260048101879052602401610735565b600680546000918261140383611a92565b909155506040805160c081018252338082526001600160a01b038c811660208085018281528587018f8152606087018f81526001608089018181524260a08b0181815260008e81526005808a528e82209d518e54908d166001600160a01b0319918216178f559851958e01805496909c169590981694909417909955935160028b015591516003808b0191909155915160048a01805491151560ff19909216919091179055955197909201969096558484528152918590209390935583518c81529081018b90529394509092909184917f54d9821940970069778391ef13cae6bdafcdbc200696294ec7413deff829a4a5910160405180910390a4979650505050505050565b6001600160a01b038116811461151e57600080fd5b50565b60006020828403121561153357600080fd5b8135610b8a81611509565b60006020828403121561155057600080fd5b5035919050565b634e487b7160e01b600052604160045260246000fd5b60405160e0810167ffffffffffffffff8111828210171561159057611590611557565b60405290565b604051601f8201601f1916810167ffffffffffffffff811182821017156115bf576115bf611557565b604052919050565b600067ffffffffffffffff8211156115e1576115e1611557565b50601f01601f191660200190565b600082601f83011261160057600080fd5b813561161361160e826115c7565b611596565b81815284602083860101111561162857600080fd5b816020850160208301376000918101602001919091529392505050565b600a811061151e57600080fd5b60008060008060008060c0878903121561166b57600080fd5b863561167681611509565b9550602087013567ffffffffffffffff81111561169257600080fd5b61169e89828a016115ef565b95505060408701356116af81611645565b9350606087013592506080870135915060a087013567ffffffffffffffff8111156116d957600080fd5b6116e589828a016115ef565b9150509295509295509295565b6000806040838503121561170557600080fd5b50508035926020909101359150565b60008060006060848603121561172957600080fd5b833561173481611509565b95602085013595506040909401359392505050565b60006020828403121561175b57600080fd5b81518015158114610b8a57600080fd5b60006020828403121561177d57600080fd5b5051919050565b634e487b7160e01b600052601160045260246000fd5b808201808211156104ee576104ee611784565b818103818111156104ee576104ee611784565b6001600160a01b039384168152919092166020820152604081019190915260600190565b60005b838110156117ff5781810151838201526020016117e7565b50506000910152565b600081518084526118208160208601602086016117e4565b601f01601f19169290920160200192915050565b6001600160a01b038716815260c06020820181905260009061185890830188611808565b600a871061187657634e487b7160e01b600052602160045260246000fd5b86604084015285606084015284608084015282810360a084015261189a8185611808565b9998505050505050505050565b6000602082840312156118b957600080fd5b8151610b8a81611509565b600082601f8301126118d557600080fd5b81516118e361160e826115c7565b8181528460208386010111156118f857600080fd5b6105b88260208301602087016117e4565b805161191481611645565b919050565b600082601f83011261192a57600080fd5b815167ffffffffffffffff81111561194457611944611557565b8060051b61195460208201611596565b9182526020818501810192908101908684111561197057600080fd5b6020860192505b8383101561199b57825161198a81611509565b825260209283019290910190611977565b9695505050505050565b6000602082840312156119b757600080fd5b815167ffffffffffffffff8111156119ce57600080fd5b820160e081850312156119e057600080fd5b6119e861156d565b815167ffffffffffffffff8111156119ff57600080fd5b611a0b868285016118c4565b825250611a1a60208301611909565b602082015260408281015190820152606080830151908201526080808301519082015260a0808301519082015260c082015167ffffffffffffffff811115611a6157600080fd5b611a6d86828501611919565b60c083015250949350505050565b80820281158282048414176104ee576104ee611784565b600060018201611aa457611aa4611784565b506001019056fea2646970667358221220106685d4557c5fdb85db95f8da7a088398ecaf4a3789d918421044a086ba81dd64736f6c634300081c0033",
  "linkReferences": {},
  "deployedLinkReferences": {}
}