{
  "_format": "hh-sol-artifact-1",
  "contractName": "PropertyNFT",
  "sourceName": "contracts/PropertyNFT.sol",
  "abi": [
    {
      "inputs": [
        {
          "internalType": "address",
          "name": "initialOwner",
          "type": "address"
        }
      ],
      "stateMutability": "nonpayable",
      "type": "constructor"
    },
    {
      "inputs": [],
      "name": "ERC721EnumerableForbiddenBatchMint",
      "type": "error"
    },
    {
      "inputs": [
        {
          "internalType": "address",
          "name": "sender",
          "type": "address"
        },
        {
          "internalType": "uint256",
          "name": "tokenId",
          "type": "uint256"
        },
        {
          "internalType": "address",
          "name": "owner",
          "type": "address"
        }
      ],
      "name": "ERC721IncorrectOwner",
      "type": "error"
    },
    {
      "inputs": [
        {
          "internalType": "address",
          "name": "operator",
          "type": "address"
        },
        {
          "internalType": "uint256",
          "name": "tokenId",
          "type": "uint256"
        }
      ],
      "name": "ERC721InsufficientApproval",
      "type": "error"
    },
    {
      "inputs": [
        {
          "internalType": "address",
          "name": "approver",
          "type": "address"
        }
      ],
      "name": "ERC721InvalidApprover",
      "type": "error"
    },
    {
      "inputs": [
        {
          "internalType": "address",
          "name": "operator",
          "type": "address"
        }
      ],
      "name": "ERC721InvalidOperator",
      "type": "error"
    },
    {
      "inputs": [
        {
          "internalType": "address",
          "name": "owner",
          "type": "address"
        }
      ],
      "name": "ERC721InvalidOwner",
      "type": "error"
    },
    {
      "inputs": [
        {
          "internalType": "address",
          "name": "receiver",
          "type": "address"
        }
      ],
      "name": "ERC721InvalidReceiver",
      "type": "error"
    },
    {
      "inputs": [
        {
          "internalType": "address",
          "name": "sender",
          "type": "address"
        }
      ],
      "name": "ERC721InvalidSender",
      "type": "error"
    },
    {
      "inputs": [
        {
          "internalType": "uint256",
          "name": "tokenId",
          "type": "uint256"
        }
      ],
      "name": "ERC721NonexistentToken",
      "type": "error"
    },
    {
      "inputs": [
        {
          "internalType": "address",
          "name": "owner",
          "type": "address"
        },
        {
          "internalType": "uint256",
          "name": "index",
          "type": "uint256"
        }
      ],
      "name": "ERC721OutOfBoundsIndex",
      "type": "error"
    },
    {
      "inputs": [
        {
          "internalType": "address",
          "name": "player",
          "type": "address"
        }
      ],
      "name": "MaxPropertiesReached",
      "type": "error"
    },
    {
      "inputs": [
        {
          "internalType": "address",
          "name": "caller",
          "type": "address"
        }
      ],
      "name": "NotAuthorized",
      "type": "error"
    },
    {
      "inputs": [
        {
          "internalType": "address",
          "name": "owner",
          "type": "address"
        }
      ],
      "name": "OwnableInvalidOwner",
      "type": "error"
    },
    {
      "inputs": [
        {
          "internalType": "address",
          "name": "account",
          "type": "address"
        }
      ],
      "name": "OwnableUnauthorizedAccount",
      "type": "error"
    },
    {
      "inputs": [
        {
          "internalType": "uint256",
          "name": "tokenId",
          "type": "uint256"
        }
      ],
      "name": "PropertyDoesNotExist",
      "type": "error"
    },
    {
      "inputs": [],
      "name": "ZeroAddress",
      "type": "error"
    },
    {
      "anonymous": false,
      "inputs": [
        {
          "indexed": true,
          "internalType": "address",
          "name": "owner",
          "type": "address"
        },
        {
          "indexed": true,
          "internalType": "address",
          "name": "approved",
          "type": "address"
        },
        {
          "indexed": true,
          "internalType": "uint256",
          "name": "tokenId",
          "type": "uint256"
        }
      ],
      "name": "Approval",
      "type": "event"
    },
    {
      "anonymous": false,
      "inputs": [
        {
          "indexed": true,
          "internalType": "address",
          "name": "owner",
          "type": "address"
        },
        {
          "indexed": true,
          "internalType": "address",
          "name": "operator",
          "type": "address"
        },
        {
          "indexed": false,
          "internalType": "bool",
          "name": "approved",
          "type": "bool"
        }
      ],
      "name": "ApprovalForAll",
      "type": "event"
    },
    {
      "anonymous": false,
      "inputs": [
        {
          "indexed": false,
          "internalType": "uint256",
          "name": "_fromTokenId",
          "type": "uint256"
        },
        {
          "indexed": false,
          "internalType": "uint256",
          "name": "_toTokenId",
          "type": "uint256"
        }
      ],
      "name": "BatchMetadataUpdate",
      "type": "event"
    },
    {
      "anonymous": false,
      "inputs": [
        {
          "indexed": true,
          "internalType": "address",
          "name": "oldManager",
          "type": "address"
        },
        {
          "indexed": true,
          "internalType": "address",
          "name": "newManager",
          "type": "address"
        }
      ],
      "name": "GameManagerUpdated",
      "type": "event"
    },
    {
      "anonymous": false,
      "inputs": [
        {
          "indexed": false,
          "internalType": "uint256",
          "name": "_tokenId",
          "type": "uint256"
        }
      ],
      "name": "MetadataUpdate",
      "type": "event"
    },
    {
      "anonymous": false,
      "inputs": [
        {
          "indexed": true,
          "internalType": "address",
          "name": "previousOwner",
          "type": "address"
        },
        {
          "indexed": true,
          "internalType": "address",
          "name": "newOwner",
          "type": "address"
        }
      ],
      "name": "OwnershipTransferred",
      "type": "event"
    },
    {
      "anonymous": false,
      "inputs": [
        {
          "indexed": true,
          "internalType": "uint256",
          "name": "tokenId",
          "type": "uint256"
        },
        {
          "indexed": false,
          "internalType": "string",
          "name": "name",
          "type": "string"
        },
        {
          "indexed": false,
          "internalType": "enum PropertyNFT.PropertyType",
          "name": "propertyType",
          "type": "uint8"
        },
        {
          "indexed": true,
          "internalType": "address",
          "name": "owner",
          "type": "address"
        }
      ],
      "name": "PropertyMinted",
      "type": "event"
    },
    {
      "anonymous": false,
      "inputs": [
        {
          "indexed": true,
          "internalType": "uint256",
          "name": "tokenId",
          "type": "uint256"
        },
        {
          "indexed": true,
          "internalType": "address",
          "name": "from",
          "type": "address"
        },
        {
          "indexed": true,
          "internalType": "address",
          "name": "to",
          "type": "address"
        }
      ],
      "name": "PropertyTransferred",
      "type": "event"
    },
    {
      "anonymous": false,
      "inputs": [
        {
          "indexed": true,
          "internalType": "address",
          "name": "from",
          "type": "address"
        },
        {
          "indexed": true,
          "internalType": "address",
          "name": "to",
          "type": "address"
        },
        {
          "indexed": true,
          "internalType": "uint256",
          "name": "tokenId",
          "type": "uint256"
        }
      ],
      "name": "Transfer",
      "type": "event"
    },
    {
      "inputs": [],
      "name": "MAX_PROPERTIES_PER_PLAYER",
      "outputs": [
        {
          "internalType": "uint256",
          "name": "",
          "type": "uint256"
        }
      ],
      "stateMutability": "view",
      "type": "function"
    },
    {
      "inputs": [
        {
          "internalType": "address",
          "name": "to",
          "type": "address"
        },
        {
          "internalType": "uint256",
          "name": "tokenId",
          "type": "uint256"
        }
      ],
      "name": "approve",
      "outputs": [],
      "stateMutability": "nonpayable",
      "type": "function"
    },
    {
      "inputs": [
        {
          "internalType": "address",
          "name": "owner",
          "type": "address"
        }
      ],
      "name": "balanceOf",
      "outputs": [
        {
          "internalType": "uint256",
          "name": "",
          "type": "uint256"
        }
      ],
      "stateMutability": "view",
      "type": "function"
    },
    {
      "inputs": [
        {
          "internalType": "address",
          "name": "player",
          "type": "address"
        }
      ],
      "name": "canReceiveProperty",
      "outputs": [
        {
          "internalType": "bool",
          "name": "",
          "type": "bool"
        }
      ],
      "stateMutability": "view",
      "type": "function"
    },
    {
      "inputs": [],
      "name": "gameManager",
      "outputs": [
        {
          "internalType": "address",
          "name": "",
          "type": "address"
        }
      ],
      "stateMutability": "view",
      "type": "function"
    },
    {
      "inputs": [
        {
          "internalType": "uint256",
          "name": "tokenId",
          "type": "uint256"
        }
      ],
      "name": "getApproved",
      "outputs": [
        {
          "internalType": "address",
          "name": "",
          "type": "address"
        }
      ],
      "stateMutability": "view",
      "type": "function"
    },
    {
      "inputs": [
        {
          "internalType": "address",
          "name": "player",
          "type": "address"
        }
      ],
      "name": "getPlayerPropertyCount",
      "outputs": [
        {
          "internalType": "uint256",
          "name": "",
          "type": "uint256"
        }
      ],
      "stateMutability": "view",
      "type": "function"
    },
    {
      "inputs": [
        {
          "internalType": "uint256",
          "name": "tokenId",
          "type": "uint256"
        }
      ],
      "name": "getPreviousOwners",
      "outputs": [
        {
          "internalType": "address[]",
          "name": "",
          "type": "address[]"
        }
      ],
      "stateMutability": "view",
      "type": "function"
    },
    {
      "inputs": [
        {
          "internalType": "uint256",
          "name": "tokenId",
          "type": "uint256"
        }
      ],
      "name": "getProperty",
      "outputs": [
        {
          "components": [
            {
              "internalType": "string",
              "name": "name",
              "type": "string"
            },
            {
              "internalType": "enum PropertyNFT.PropertyType",
              "name": "propertyType",
              "type": "uint8"
            },
            {
              "internalType": "uint256",
              "name": "value",
              "type": "uint256"
            },
            {
              "internalType": "uint256",
              "name": "rent",
              "type": "uint256"
            },
            {
              "internalType": "uint256",
              "name": "createdAt",
              "type": "uint256"
            },
            {
              "internalType": "uint256",
              "name": "lastTransferAt",
              "type": "uint256"
            },
            {
              "internalType": "address[]",
              "name": "previousOwners",
              "type": "address[]"
            }
          ],
          "internalType": "struct PropertyNFT.Property",
          "name": "",
          "type": "tuple"
        }
      ],
      "stateMutability": "view",
      "type": "function"
    },
    {
      "inputs": [],
      "name": "getTotalProperties",
      "outputs": [
        {
          "internalType": "uint256",
          "name": "",
          "type": "uint256"
        }
      ],
      "stateMutability": "view",
      "type": "function"
    },
    {
      "inputs": [
        {
          "internalType": "address",
          "name": "owner",
          "type": "address"
        },
        {
          "internalType": "address",
          "name": "operator",
          "type": "address"
        }
      ],
      "name": "isApprovedForAll",
      "outputs": [
        {
          "internalType": "bool",
          "name": "",
          "type": "bool"
        }
      ],
      "stateMutability": "view",
      "type": "function"
    },
    {
      "inputs": [
        {
          "internalType": "address",
          "name": "to",
          "type": "address"
        },
        {
          "internalType": "string",
          "name": "name",
          "type": "string"
        },
        {
          "internalType": "enum PropertyNFT.PropertyType",
          "name": "propertyType",
          "type": "uint8"
        },
        {
          "internalType": "uint256",
          "name": "value",
          "type": "uint256"
        },
        {
          "internalType": "uint256",
          "name": "rent",
          "type": "uint256"
        },
        {
          "internalType": "string",
          "name": "uri",
          "type": "string"
        }
      ],
      "name": "mintProperty",
      "outputs": [
        {
          "internalType": "uint256",
          "name": "",
          "type": "uint256"
        }
      ],
      "stateMutability": "nonpayable",
      "type": "function"
    },
    {
      "inputs": [],
      "name": "name",
      "outputs": [
        {
          "internalType": "string",
          "name": "",
          "type": "string"
        }
      ],
      "stateMutability": "view",
      "type": "function"
    },
    {
      "inputs": [],
      "name": "owner",
      "outputs": [
        {
          "internalType": "address",
          "name": "",
          "type": "address"
        }
      ],
      "stateMutability": "view",
      "type": "function"
    },
    {
      "inputs": [
        {
          "internalType": "uint256",
          "name": "tokenId",
          "type": "uint256"
        }
      ],
      "name": "ownerOf",
      "outputs": [
        {
          "internalType": "address",
          "name": "",
          "type": "address"
        }
      ],
      "stateMutability": "view",
      "type": "function"
    },
    {
      "inputs": [
        {
          "internalType": "uint256",
          "name": "",
          "type": "uint256"
        }
      ],
      "name": "properties",
      "outputs": [
        {
          "internalType": "string",
          "name": "name",
          "type": "string"
        },
        {
          "internalType": "enum PropertyNFT.PropertyType",
          "name": "propertyType",
          "type": "uint8"
        },
        {
          "internalType": "uint256",
          "name": "value",
          "type": "uint256"
        },
        {
          "internalType": "uint256",
          "name": "rent",
          "type": "uint256"
        },
        {
          "internalType": "uint256",
          "name": "createdAt",
          "type": "uint256"
        },
        {
          "internalType": "uint256",
          "name": "lastTransferAt",
          "type": "uint256"
        }
      ],
      "stateMutability": "view",
      "type": "function"
    },
    {
      "inputs": [],
      "name": "renounceOwnership",
      "outputs": [],
      "stateMutability": "nonpayable",
      "type": "function"
    },
    {
      "inputs": [
        {
          "internalType": "address",
          "name": "from",
          "type": "address"
        },
        {
          "internalType": "address",
          "name": "to",
          "type": "address"
        },
        {
          "internalType": "uint256",
          "name": "tokenId",
          "type": "uint256"
        }
      ],
      "name": "safeTransferFrom",
      "outputs": [],
      "stateMutability": "nonpayable",
      "type": "function"
    },
    {
      "inputs": [
        {
          "internalType": "address",
          "name": "from",
          "type": "address"
        },
        {
          "internalType": "address",
          "name": "to",
          "type": "address"
        },
        {
          "internalType": "uint256",
          "name": "tokenId",
          "type": "uint256"
        },
        {
          "internalType": "bytes",
          "name": "data",
          "type": "bytes"
        }
      ],
      "name": "safeTransferFrom",
      "outputs": [],
      "stateMutability": "nonpayable",
      "type": "function"
    },
    {
      "inputs": [
        {
          "internalType": "address",
          "name": "operator",
          "type": "address"
        },
        {
          "internalType": "bool",
          "name": "approved",
          "type": "bool"
        }
      ],
      "name": "setApprovalForAll",
      "outputs": [],
      "stateMutability": "nonpayable",
      "type": "function"
    },
    {
      "inputs": [
        {
          "internalType": "address",
          "name": "_gameManager",
          "type": "address"
        }
      ],
      "name": "setGameManager",
      "outputs": [],
      "stateMutability": "nonpayable",
      "type": "function"
    },
    {
      "inputs": [
        {
          "internalType": "bytes4",
          "name": "interfaceId",
          "type": "bytes4"
        }
      ],
      "name": "supportsInterface",
      "outputs": [
        {
          "internalType": "bool",
          "name": "",
          "type": "bool"
        }
      ],
      "stateMutability": "view",
      "type": "function"
    },
    {
      "inputs": [],
      "name": "symbol",
      "outputs": [
        {
          "internalType": "string",
          "name": "",
          "type": "string"
        }
      ],
      "stateMutability": "view",
      "type": "function"
    },
    {
      "inputs": [
        {
          "internalType": "uint256",
          "name": "index",
          "type": "uint256"
        }
      ],
      "name": "tokenByIndex",
      "outputs": [
        {
          "internalType": "uint256",
          "name": "",
          "type": "uint256"
        }
      ],
      "stateMutability": "view",
      "type": "function"
    },
    {
      "inputs": [
        {
          "internalType": "address",
          "name": "owner",
          "type": "address"
        },
        {
          "internalType": "uint256",
          "name": "index",
          "type": "uint256"
        }
      ],
      "name": "tokenOfOwnerByIndex",
      "outputs": [
        {
          "internalType": "uint256",
          "name": "",
          "type": "uint256"
        }
      ],
      "stateMutability": "view",
      "type": "function"
    },
    {
      "inputs": [
        {
          "internalType": "uint256",
          "name": "tokenId",
          "type": "uint256"
        }
      ],
      "name": "tokenURI",
      "outputs": [
        {
          "internalType": "string",
          "name": "",
          "type": "string"
        }
      ],
      "stateMutability": "view",
      "type": "function"
    },
    {
      "inputs": [],
      "name": "totalSupply",
      "outputs": [
        {
          "internalType": "uint256",
          "name": "",
          "type": "uint256"
        }
      ],
      "stateMutability": "view",
      "type": "function"
    },
    {
      "inputs": [
        {
          "internalType": "address",
          "name": "from",
          "type": "address"
        },
        {
          "internalType": "address",
          "name": "to",
          "type": "address"
        },
        {
          "internalType": "uint256",
          "name": "tokenId",
          "type": "uint256"
        }
      ],
      "name": "transferFrom",
      "outputs": [],
      "stateMutability": "nonpayable",
      "type": "function"
    },
    {
      "inputs": [
        {
          "internalType": "address",
          "name": "newOwner",
          "type": "address"
        }
      ],
      "name": "transferOwnership",
      "outputs": [],
      "stateMutability": "nonpayable",
      "type": "function"
    }
  ],
  "bytecode": "0x608060405234801561001057600080fd5b5060405161255d38038061255d83398101604081905261002f9161014e565b80604051806040016040528060118152602001704d6f6e6f706f6c792050726f706572747960781b8152506040518060400160405280600581526020016404d50524f560dc1b8152508160009081610087919061021d565b506001610094828261021d565b5050506001600160a01b0381166100c557604051631e4fbdf760e01b81526000600482015260240160405180910390fd5b6100ce816100fc565b506001600160a01b0381166100f65760405163d92e233d60e01b815260040160405180910390fd5b506102db565b600b80546001600160a01b038381166001600160a01b0319831681179093556040519116919082907f8be0079c531659141344cd1fd0a4f28419497f9722a3daafe3b4186f6b6457e090600090a35050565b60006020828403121561016057600080fd5b81516001600160a01b038116811461017757600080fd5b9392505050565b634e487b7160e01b600052604160045260246000fd5b600181811c908216806101a857607f821691505b6020821081036101c857634e487b7160e01b600052602260045260246000fd5b50919050565b601f82111561021857806000526020600020601f840160051c810160208510156101f55750805b601f840160051c820191505b818110156102155760008155600101610201565b50505b505050565b81516001600160401b038111156102365761023661017e565b61024a816102448454610194565b846101ce565b6020601f82116001811461027e57600083156102665750848201515b600019600385901b1c1916600184901b178455610215565b600084815260208120601f198516915b828110156102ae578785015182556020948501946001909201910161028e565b50848210156102cc5786840151600019600387901b60f8161c191681555b50505050600190811b01905550565b612273806102ea6000396000f3fe608060405234801561001057600080fd5b50600436106101cf5760003560e01c806370a0823111610104578063b7127e41116100a2578063e985e9c511610071578063e985e9c5146103be578063f1a0995c146103d1578063f2fde38b146103f1578063f7b108081461040457600080fd5b8063b7127e4114610372578063b88d4fde14610385578063c6b0526614610398578063c87b56dd146103ab57600080fd5b806395d89b41116100de57806395d89b411461033c5780639aaa9d3414610344578063a22cb4651461034c578063afe309d61461035f57600080fd5b806370a0823114610310578063715018a6146103235780638da5cb5b1461032b57600080fd5b806323b872dd116101715780633980c9b41161014b5780633980c9b4146102c457806342842e0e146102d75780634f6ccce7146102ea5780636352211e146102fd57600080fd5b806323b872dd1461027e5780632f745c591461029157806332665ffb146102a457600080fd5b8063095ea7b3116101ad578063095ea7b31461023c57806317aaf5ed1461025157806318160ddd146102635780631c1b22741461026b57600080fd5b806301ffc9a7146101d457806306fdde03146101fc578063081812fc14610211575b600080fd5b6101e76101e2366004611af0565b610429565b60405190151581526020015b60405180910390f35b61020461043a565b6040516101f39190611b5d565b61022461021f366004611b70565b6104cc565b6040516001600160a01b0390911681526020016101f3565b61024f61024a366004611ba5565b6104f5565b005b600c545b6040519081526020016101f3565b600954610255565b610255610279366004611bcf565b610504565b61024f61028c366004611bea565b61050f565b61025561029f366004611ba5565b61059f565b6102b76102b2366004611b70565b610604565b6040516101f39190611c5f565b6101e76102d2366004611bcf565b6107d8565b61024f6102e5366004611bea565b6107ec565b6102556102f8366004611b70565b61080c565b61022461030b366004611b70565b610865565b61025561031e366004611bcf565b610870565b61024f6108b8565b600b546001600160a01b0316610224565b6102046108cc565b610255600481565b61024f61035a366004611d16565b6108db565b61025561036d366004611e02565b6108e6565b61024f610380366004611bcf565b610b21565b61024f610393366004611ea4565b610ba2565b600d54610224906001600160a01b031681565b6102046103b9366004611b70565b610bba565b6101e76103cc366004611f20565b610bc5565b6103e46103df366004611b70565b610bf3565b6040516101f39190611f53565b61024f6103ff366004611bcf565b610c87565b610417610412366004611b70565b610cc5565b6040516101f396959493929190611f9f565b600061043482610d86565b92915050565b60606000805461044990611fe4565b80601f016020809104026020016040519081016040528092919081815260200182805461047590611fe4565b80156104c25780601f10610497576101008083540402835291602001916104c2565b820191906000526020600020905b8154815290600101906020018083116104a557829003601f168201915b5050505050905090565b60006104d782610dab565b506000828152600460205260409020546001600160a01b0316610434565b610500828233610de4565b5050565b600061043482610870565b6001600160a01b03821661053e57604051633250574960e11b8152600060048201526024015b60405180910390fd5b600061054b838333610df1565b9050836001600160a01b0316816001600160a01b031614610599576040516364283d7b60e01b81526001600160a01b0380861660048301526024820184905282166044820152606401610535565b50505050565b60006105aa83610870565b82106105db5760405163295f44f760e21b81526001600160a01b038416600482015260248101839052604401610535565b506001600160a01b03919091166000908152600760209081526040808320938352929052205490565b6106456040805160e0810190915260608152602081016000815260200160008152602001600081526020016000815260200160008152602001606081525090565b600c54821061066a5760405163245a964f60e21b815260048101839052602401610535565b6000828152600e602052604090819020815160e0810190925280548290829061069290611fe4565b80601f01602080910402602001604051908101604052809291908181526020018280546106be90611fe4565b801561070b5780601f106106e05761010080835404028352916020019161070b565b820191906000526020600020905b8154815290600101906020018083116106ee57829003601f168201915b5050509183525050600182015460209091019060ff16600981111561073257610732611c27565b600981111561074357610743611c27565b815260200160028201548152602001600382015481526020016004820154815260200160058201548152602001600682018054806020026020016040519081016040528092919081815260200182805480156107c857602002820191906000526020600020905b81546001600160a01b031681526001909101906020018083116107aa575b5050505050815250509050919050565b600060046107e583610870565b1092915050565b61080783838360405180602001604052806000815250610ba2565b505050565b600061081760095490565b82106108405760405163295f44f760e21b81526000600482015260248101839052604401610535565b600982815481106108535761085361201e565b90600052602060002001549050919050565b600061043482610dab565b60006001600160a01b03821661089c576040516322718ad960e21b815260006004820152602401610535565b506001600160a01b031660009081526003602052604090205490565b6108c0610eb8565b6108ca6000610ee5565b565b60606001805461044990611fe4565b610500338383610f37565b600d546000906001600160a01b0316331480159061090f5750600b546001600160a01b03163314155b1561092f57604051634a0bfec160e01b8152336004820152602401610535565b6001600160a01b0387166109565760405163d92e233d60e01b815260040160405180910390fd5b600b546001600160a01b0388811691161480159061097d5750600461097a88610870565b10155b156109a65760405163547cc39560e11b81526001600160a01b0388166004820152602401610535565b600c8054600091826109b78361204a565b9190505590506040518060e001604052808881526020018760098111156109e0576109e0611c27565b815260208101879052604081018690524260608201819052608082015260a0016000604051908082528060200260200182016040528015610a2b578160200160208202803683370190505b5090526000828152600e6020526040902081518190610a4a90826120aa565b50602082015160018083018054909160ff1990911690836009811115610a7257610a72611c27565b021790555060408201516002820155606082015160038201556080820151600482015560a0820151600582015560c08201518051610aba916006840191602090910190611a60565b50905050610ac88882610fd6565b610ad28184610ff0565b876001600160a01b0316817f03c72186d059fc03d2fb1f0d555358a1b779fd6c2e299f3862abceaed5ad85688989604051610b0e929190612169565b60405180910390a3979650505050505050565b610b29610eb8565b6001600160a01b038116610b505760405163d92e233d60e01b815260040160405180910390fd5b600d80546001600160a01b038381166001600160a01b0319831681179093556040519116919082907f13da884af101d5ec272cfc208641837648f82aad8b56a1611d2d9757f73189f290600090a35050565b610bad84848461050f565b6105993385858585611040565b60606104348261116b565b6001600160a01b03918216600090815260056020908152604080832093909416825291909152205460ff1690565b6060600c548210610c1a5760405163245a964f60e21b815260048101839052602401610535565b6000828152600e602090815260409182902060060180548351818402810184019094528084529091830182828015610c7b57602002820191906000526020600020905b81546001600160a01b03168152600190910190602001808311610c5d575b50505050509050919050565b610c8f610eb8565b6001600160a01b038116610cb957604051631e4fbdf760e01b815260006004820152602401610535565b610cc281610ee5565b50565b600e60205260009081526040902080548190610ce090611fe4565b80601f0160208091040260200160405190810160405280929190818152602001828054610d0c90611fe4565b8015610d595780601f10610d2e57610100808354040283529160200191610d59565b820191906000526020600020905b815481529060010190602001808311610d3c57829003601f168201915b5050506001840154600285015460038601546004870154600590970154959660ff90931695919450925086565b60006001600160e01b0319821663780e9d6360e01b148061043457506104348261127c565b6000818152600260205260408120546001600160a01b03168061043457604051637e27328960e01b815260048101849052602401610535565b61080783838360016112a1565b6000828152600260205260408120546001600160a01b03168015801590610e2057506001600160a01b03851615155b15610ea2576000848152600e6020908152604080832060068101805460018101825590855292842090920180546001600160a01b0319166001600160a01b038681169182179092558885524260059094019390935590519088169287917f2231fc8bc2c20e26d85d66dc7f13a6b6d535c86d2a4d678bb2de61f5b71360839190a45b610ead8585856113a7565b9150505b9392505050565b600b546001600160a01b031633146108ca5760405163118cdaa760e01b8152336004820152602401610535565b600b80546001600160a01b038381166001600160a01b0319831681179093556040519116919082907f8be0079c531659141344cd1fd0a4f28419497f9722a3daafe3b4186f6b6457e090600090a35050565b6001600160a01b038216610f6957604051630b61174360e31b81526001600160a01b0383166004820152602401610535565b6001600160a01b03838116600081815260056020908152604080832094871680845294825291829020805460ff191686151590811790915591519182527f17307eab39ab6107e8899845ad3d59bd9653f200f220920489ca2b5937696c31910160405180910390a3505050565b610500828260405180602001604052806000815250611474565b600082815260066020526040902061100882826120aa565b506040518281527ff8e1a15aba9398e019f0b49df1a4fde98ee17ae345cb5f6b5e2c27f5033e8ce79060200160405180910390a15050565b6001600160a01b0383163b1561116457604051630a85bd0160e11b81526001600160a01b0384169063150b7a029061108290889088908790879060040161218b565b6020604051808303816000875af19250505080156110bd575060408051601f3d908101601f191682019092526110ba918101906121c8565b60015b611126573d8080156110eb576040519150601f19603f3d011682016040523d82523d6000602084013e6110f0565b606091505b50805160000361111e57604051633250574960e11b81526001600160a01b0385166004820152602401610535565b805160208201fd5b6001600160e01b03198116630a85bd0160e11b1461116257604051633250574960e11b81526001600160a01b0385166004820152602401610535565b505b5050505050565b606061117682610dab565b506000828152600660205260408120805461119090611fe4565b80601f01602080910402602001604051908101604052809291908181526020018280546111bc90611fe4565b80156112095780601f106111de57610100808354040283529160200191611209565b820191906000526020600020905b8154815290600101906020018083116111ec57829003601f168201915b50505050509050600061122760408051602081019091526000815290565b90508051600003611239575092915050565b81511561126b5780826040516020016112539291906121e5565b60405160208183030381529060405292505050919050565b6112748461148c565b949350505050565b60006001600160e01b03198216632483248360e11b1480610434575061043482611500565b80806112b557506001600160a01b03821615155b156113775760006112c584610dab565b90506001600160a01b038316158015906112f15750826001600160a01b0316816001600160a01b031614155b801561130457506113028184610bc5565b155b1561132d5760405163a9fbf51f60e01b81526001600160a01b0384166004820152602401610535565b81156113755783856001600160a01b0316826001600160a01b03167f8c5be1e5ebec7d5bd14f71427d1e84f3dd0314c0f7b2291e5b200ac8c7c3b92560405160405180910390a45b505b5050600090815260046020526040902080546001600160a01b0319166001600160a01b0392909216919091179055565b6000806113b5858585611550565b90506001600160a01b0381166114125761140d84600980546000838152600a60205260408120829055600182018355919091527f6e1540171b6c0c960b71a7020d9f60077f6af931a8bbf590da0223dacf75c7af0155565b611435565b846001600160a01b0316816001600160a01b031614611435576114358185611649565b6001600160a01b0385166114515761144c846116ca565b611274565b846001600160a01b0316816001600160a01b031614611274576112748585611779565b61147e83836117c9565b610807336000858585611040565b606061149782610dab565b5060006114af60408051602081019091526000815290565b905060008151116114cf5760405180602001604052806000815250610eb1565b806114d98461182e565b6040516020016114ea9291906121e5565b6040516020818303038152906040529392505050565b60006001600160e01b031982166380ac58cd60e01b148061153157506001600160e01b03198216635b5e139f60e01b145b8061043457506301ffc9a760e01b6001600160e01b0319831614610434565b6000828152600260205260408120546001600160a01b039081169083161561157d5761157d8184866118c1565b6001600160a01b038116156115bb5761159a6000856000806112a1565b6001600160a01b038116600090815260036020526040902080546000190190555b6001600160a01b038516156115ea576001600160a01b0385166000908152600360205260409020805460010190555b60008481526002602052604080822080546001600160a01b0319166001600160a01b0389811691821790925591518793918516917fddf252ad1be2c89b69c2b068fc378daa952ba7f163c4a11628f55a4df523b3ef91a4949350505050565b600061165483610870565b6000838152600860209081526040808320546001600160a01b03881684526007909252909120919250908183146116ab57600083815260208281526040808320548584528184208190558352600890915290208290555b6000938452600860209081526040808620869055938552525081205550565b6009546000906116dc90600190612214565b6000838152600a6020526040812054600980549394509092849081106117045761170461201e565b9060005260206000200154905080600983815481106117255761172561201e565b6000918252602080832090910192909255828152600a9091526040808220849055858252812055600980548061175d5761175d612227565b6001900381819060005260206000200160009055905550505050565b6000600161178684610870565b6117909190612214565b6001600160a01b039093166000908152600760209081526040808320868452825280832085905593825260089052919091209190915550565b6001600160a01b0382166117f357604051633250574960e11b815260006004820152602401610535565b600061180183836000610df1565b90506001600160a01b03811615610807576040516339e3563760e11b815260006004820152602401610535565b6060600061183b83611925565b600101905060008167ffffffffffffffff81111561185b5761185b611d52565b6040519080825280601f01601f191660200182016040528015611885576020820181803683370190505b5090508181016020015b600019016f181899199a1a9b1b9c1cb0b131b232b360811b600a86061a8153600a850494508461188f57509392505050565b6118cc8383836119fd565b610807576001600160a01b0383166118fa57604051637e27328960e01b815260048101829052602401610535565b60405163177e802f60e01b81526001600160a01b038316600482015260248101829052604401610535565b60008072184f03e93ff9f4daa797ed6e38ed64bf6a1f0160401b83106119645772184f03e93ff9f4daa797ed6e38ed64bf6a1f0160401b830492506040015b6d04ee2d6d415b85acef81000000008310611990576d04ee2d6d415b85acef8100000000830492506020015b662386f26fc1000083106119ae57662386f26fc10000830492506010015b6305f5e10083106119c6576305f5e100830492506008015b61271083106119da57612710830492506004015b606483106119ec576064830492506002015b600a83106104345760010192915050565b60006001600160a01b038316158015906112745750826001600160a01b0316846001600160a01b03161480611a375750611a378484610bc5565b806112745750506000908152600460205260409020546001600160a01b03908116911614919050565b828054828255906000526020600020908101928215611ab5579160200282015b82811115611ab557825182546001600160a01b0319166001600160a01b03909116178255602090920191600190910190611a80565b50611ac1929150611ac5565b5090565b5b80821115611ac15760008155600101611ac6565b6001600160e01b031981168114610cc257600080fd5b600060208284031215611b0257600080fd5b8135610eb181611ada565b60005b83811015611b28578181015183820152602001611b10565b50506000910152565b60008151808452611b49816020860160208601611b0d565b601f01601f19169290920160200192915050565b602081526000610eb16020830184611b31565b600060208284031215611b8257600080fd5b5035919050565b80356001600160a01b0381168114611ba057600080fd5b919050565b60008060408385031215611bb857600080fd5b611bc183611b89565b946020939093013593505050565b600060208284031215611be157600080fd5b610eb182611b89565b600080600060608486031215611bff57600080fd5b611c0884611b89565b9250611c1660208501611b89565b929592945050506040919091013590565b634e487b7160e01b600052602160045260246000fd5b600a8110611c5b57634e487b7160e01b600052602160045260246000fd5b9052565b602081526000825160e06020840152611c7c610100840182611b31565b90506020840151611c906040850182611c3d565b506040840151606084015260608401516080840152608084015160a084015260a084015160c084015260c0840151601f198483030160e0850152818151808452602084019150602083019350600092505b80831015611d0c5783516001600160a01b031682526020938401936001939093019290910190611ce1565b5095945050505050565b60008060408385031215611d2957600080fd5b611d3283611b89565b915060208301358015158114611d4757600080fd5b809150509250929050565b634e487b7160e01b600052604160045260246000fd5b60008067ffffffffffffffff841115611d8357611d83611d52565b50604051601f19601f85018116603f0116810181811067ffffffffffffffff82111715611db257611db2611d52565b604052838152905080828401851015611dca57600080fd5b83836020830137600060208583010152509392505050565b600082601f830112611df357600080fd5b610eb183833560208501611d68565b60008060008060008060c08789031215611e1b57600080fd5b611e2487611b89565b9550602087013567ffffffffffffffff811115611e4057600080fd5b611e4c89828a01611de2565b9550506040870135600a8110611e6157600080fd5b9350606087013592506080870135915060a087013567ffffffffffffffff811115611e8b57600080fd5b611e9789828a01611de2565b9150509295509295509295565b60008060008060808587031215611eba57600080fd5b611ec385611b89565b9350611ed160208601611b89565b925060408501359150606085013567ffffffffffffffff811115611ef457600080fd5b8501601f81018713611f0557600080fd5b611f1487823560208401611d68565b91505092959194509250565b60008060408385031215611f3357600080fd5b611f3c83611b89565b9150611f4a60208401611b89565b90509250929050565b602080825282518282018190526000918401906040840190835b81811015611f945783516001600160a01b0316835260209384019390920191600101611f6d565b509095945050505050565b60c081526000611fb260c0830189611b31565b9050611fc16020830188611c3d565b8560408301528460608301528360808301528260a0830152979650505050505050565b600181811c90821680611ff857607f821691505b60208210810361201857634e487b7160e01b600052602260045260246000fd5b50919050565b634e487b7160e01b600052603260045260246000fd5b634e487b7160e01b600052601160045260246000fd5b60006001820161205c5761205c612034565b5060010190565b601f82111561080757806000526020600020601f840160051c8101602085101561208a5750805b601f840160051c820191505b818110156111645760008155600101612096565b815167ffffffffffffffff8111156120c4576120c4611d52565b6120d8816120d28454611fe4565b84612063565b6020601f82116001811461210c57600083156120f45750848201515b600019600385901b1c1916600184901b178455611164565b600084815260208120601f198516915b8281101561213c578785015182556020948501946001909201910161211c565b508482101561215a5786840151600019600387901b60f8161c191681555b50505050600190811b01905550565b60408152600061217c6040830185611b31565b9050610eb16020830184611c3d565b6001600160a01b03858116825284166020820152604081018390526080606082018190526000906121be90830184611b31565b9695505050505050565b6000602082840312156121da57600080fd5b8151610eb181611ada565b600083516121f7818460208801611b0d565b83519083019061220b818360208801611b0d565b01949350505050565b8181038181111561043457610434612034565b634e487b7160e01b600052603160045260246000fdfea2646970667358221220fc99a39f993a26e1f44c21ddf1624340357a7c320ddf500e7d66989514a4c0f264736f6c634300081c0033",
  "linkReferences": {},
  "deployedLinkReferences": {}
}