{
  "_format": "hh-sol-artifact-1",
  "contractName": "MonopolyToken",
  "sourceName": "contracts/MonopolyToken.sol",
  "abi": [
    {
      "inputs": [
        {
          "internalType": "address",
          "name": "initialOwner",
          "type": "address"
        }
      ],
      "stateMutability": "nonpayable",
      "type": "constructor"
    },
    {
      "inputs": [
        {
          "internalType": "address",
          "name": "spender",
          "type": "address"
        },
        {
          "internalType": "uint256",
          "name": "allowance",
          "type": "uint256"
        },
        {
          "internalType": "uint256",
          "name": "needed",
          "type": "uint256"
        }
      ],
      "name": "ERC20InsufficientAllowance",
      "type": "error"
    },
    {
      "inputs": [
        {
          "internalType": "address",
          "name": "sender",
          "type": "address"
        },
        {
          "internalType": "uint256",
          "name": "balance",
          "type": "uint256"
        },
        {
          "internalType": "uint256",
          "name": "needed",
          "type": "uint256"
        }
      ],
      "name": "ERC20InsufficientBalance",
      "type": "error"
    },
    {
      "inputs": [
        {
          "internalType": "address",
          "name": "approver",
          "type": "address"
        }
      ],
      "name": "ERC20InvalidApprover",
      "type": "error"
    },
    {
      "inputs": [
        {
          "internalType": "address",
          "name": "receiver",
          "type": "address"
        }
      ],
      "name": "ERC20InvalidReceiver",
      "type": "error"
    },
    {
      "inputs": [
        {
          "internalType": "address",
          "name": "sender",
          "type": "address"
        }
      ],
      "name": "ERC20InvalidSender",
      "type": "error"
    },
    {
      "inputs": [
        {
          "internalType": "address",
          "name": "spender",
          "type": "address"
        }
      ],
      "name": "ERC20InvalidSpender",
      "type": "error"
    },
    {
      "inputs": [
        {
          "internalType": "address",
          "name": "caller",
          "type": "address"
        }
      ],
      "name": "NotAuthorized",
      "type": "error"
    },
    {
      "inputs": [
        {
          "internalType": "address",
          "name": "owner",
          "type": "address"
        }
      ],
      "name": "OwnableInvalidOwner",
      "type": "error"
    },
    {
      "inputs": [
        {
          "internalType": "address",
          "name": "account",
          "type": "address"
        }
      ],
      "name": "OwnableUnauthorizedAccount",
      "type": "error"
    },
    {
      "inputs": [
        {
          "internalType": "address",
          "name": "player",
          "type": "address"
        }
      ],
      "name": "PlayerAlreadyRegistered",
      "type": "error"
    },
    {
      "inputs": [],
      "name": "ZeroAddress",
      "type": "error"
    },
    {
      "anonymous": false,
      "inputs": [
        {
          "indexed": true,
          "internalType": "address",
          "name": "owner",
          "type": "address"
        },
        {
          "indexed": true,
          "internalType": "address",
          "name": "spender",
          "type": "address"
        },
        {
          "indexed": false,
          "internalType": "uint256",
          "name": "value",
          "type": "uint256"
        }
      ],
      "name": "Approval",
      "type": "event"
    },
    {
      "anonymous": false,
      "inputs": [
        {
          "indexed": true,
          "internalType": "address",
          "name": "oldManager",
          "type": "address"
        },
        {
          "indexed": true,
          "internalType": "address",
          "name": "newManager",
          "type": "address"
        }
      ],
      "name": "GameManagerUpdated",
      "type": "event"
    },
    {
      "anonymous": false,
      "inputs": [
        {
          "indexed": true,
          "internalType": "address",
          "name": "previousOwner",
          "type": "address"
        },
        {
          "indexed": true,
          "internalType": "address",
          "name": "newOwner",
          "type": "address"
        }
      ],
      "name": "OwnershipTransferred",
      "type": "event"
    },
    {
      "anonymous": false,
      "inputs": [
        {
          "indexed": true,
          "internalType": "address",
          "name": "player",
          "type": "address"
        },
        {
          "indexed": false,
          "internalType": "uint256",
          "name": "amount",
          "type": "uint256"
        }
      ],
      "name": "PlayerRegistered",
      "type": "event"
    },
    {
      "anonymous": false,
      "inputs": [
        {
          "indexed": true,
          "internalType": "address",
          "name": "from",
          "type": "address"
        },
        {
          "indexed": true,
          "internalType": "address",
          "name": "to",
          "type": "address"
        },
        {
          "indexed": false,
          "internalType": "uint256",
          "name": "value",
          "type": "uint256"
        }
      ],
      "name": "Transfer",
      "type": "event"
    },
    {
      "inputs": [],
      "name": "INITIAL_PLAYER_BALANCE",
      "outputs": [
        {
          "internalType": "uint256",
          "name": "",
          "type": "uint256"
        }
      ],
      "stateMutability": "view",
      "type": "function"
    },
    {
      "inputs": [
        {
          "internalType": "address",
          "name": "owner",
          "type": "address"
        },
        {
          "internalType": "address",
          "name": "spender",
          "type": "address"
        }
      ],
      "name": "allowance",
      "outputs": [
        {
          "internalType": "uint256",
          "name": "",
          "type": "uint256"
        }
      ],
      "stateMutability": "view",
      "type": "function"
    },
    {
      "inputs": [
        {
          "internalType": "address",
          "name": "spender",
          "type": "address"
        },
        {
          "internalType": "uint256",
          "name": "value",
          "type": "uint256"
        }
      ],
      "name": "approve",
      "outputs": [
        {
          "internalType": "bool",
          "name": "",
          "type": "bool"
        }
      ],
      "stateMutability": "nonpayable",
      "type": "function"
    },
    {
      "inputs": [
        {
          "internalType": "address",
          "name": "account",
          "type": "address"
        }
      ],
      "name": "balanceOf",
      "outputs": [
        {
          "internalType": "uint256",
          "name": "",
          "type": "uint256"
        }
      ],
      "stateMutability": "view",
      "type": "function"
    },
    {
      "inputs": [
        {
          "internalType": "uint256",
          "name": "value",
          "type": "uint256"
        }
      ],
      "name": "burn",
      "outputs": [],
      "stateMutability": "nonpayable",
      "type": "function"
    },
    {
      "inputs": [
        {
          "internalType": "address",
          "name": "account",
          "type": "address"
        },
        {
          "internalType": "uint256",
          "name": "value",
          "type": "uint256"
        }
      ],
      "name": "burnFrom",
      "outputs": [],
      "stateMutability": "nonpayable",
      "type": "function"
    },
    {
      "inputs": [],
      "name": "decimals",
      "outputs": [
        {
          "internalType": "uint8",
          "name": "",
          "type": "uint8"
        }
      ],
      "stateMutability": "view",
      "type": "function"
    },
    {
      "inputs": [],
      "name": "gameManager",
      "outputs": [
        {
          "internalType": "address",
          "name": "",
          "type": "address"
        }
      ],
      "stateMutability": "view",
      "type": "function"
    },
    {
      "inputs": [
        {
          "internalType": "address",
          "name": "player",
          "type": "address"
        }
      ],
      "name": "isPlayerRegistered",
      "outputs": [
        {
          "internalType": "bool",
          "name": "",
          "type": "bool"
        }
      ],
      "stateMutability": "view",
      "type": "function"
    },
    {
      "inputs": [
        {
          "internalType": "address",
          "name": "to",
          "type": "address"
        },
        {
          "internalType": "uint256",
          "name": "amount",
          "type": "uint256"
        }
      ],
      "name": "mint",
      "outputs": [],
      "stateMutability": "nonpayable",
      "type": "function"
    },
    {
      "inputs": [],
      "name": "name",
      "outputs": [
        {
          "internalType": "string",
          "name": "",
          "type": "string"
        }
      ],
      "stateMutability": "view",
      "type": "function"
    },
    {
      "inputs": [],
      "name": "owner",
      "outputs": [
        {
          "internalType": "address",
          "name": "",
          "type": "address"
        }
      ],
      "stateMutability": "view",
      "type": "function"
    },
    {
      "inputs": [
        {
          "internalType": "address",
          "name": "player",
          "type": "address"
        }
      ],
      "name": "registerPlayer",
      "outputs": [],
      "stateMutability": "nonpayable",
      "type": "function"
    },
    {
      "inputs": [
        {
          "internalType": "address",
          "name": "",
          "type": "address"
        }
      ],
      "name": "registeredPlayers",
      "outputs": [
        {
          "internalType": "bool",
          "name": "",
          "type": "bool"
        }
      ],
      "stateMutability": "view",
      "type": "function"
    },
    {
      "inputs": [],
      "name": "renounceOwnership",
      "outputs": [],
      "stateMutability": "nonpayable",
      "type": "function"
    },
    {
      "inputs": [
        {
          "internalType": "address",
          "name": "_gameManager",
          "type": "address"
        }
      ],
      "name": "setGameManager",
      "outputs": [],
      "stateMutability": "nonpayable",
      "type": "function"
    },
    {
      "inputs": [],
      "name": "symbol",
      "outputs": [
        {
          "internalType": "string",
          "name": "",
          "type": "string"
        }
      ],
      "stateMutability": "view",
      "type": "function"
    },
    {
      "inputs": [],
      "name": "totalSupply",
      "outputs": [
        {
          "internalType": "uint256",
          "name": "",
          "type": "uint256"
        }
      ],
      "stateMutability": "view",
      "type": "function"
    },
    {
      "inputs": [
        {
          "internalType": "address",
          "name": "to",
          "type": "address"
        },
        {
          "internalType": "uint256",
          "name": "value",
          "type": "uint256"
        }
      ],
      "name": "transfer",
      "outputs": [
        {
          "internalType": "bool",
          "name": "",
          "type": "bool"
        }
      ],
      "stateMutability": "nonpayable",
      "type": "function"
    },
    {
      "inputs": [
        {
          "internalType": "address",
          "name": "from",
          "type": "address"
        },
        {
          "internalType": "address",
          "name": "to",
          "type": "address"
        },
        {
          "internalType": "uint256",
          "name": "value",
          "type": "uint256"
        }
      ],
      "name": "transferFrom",
      "outputs": [
        {
          "internalType": "bool",
          "name": "",
          "type": "bool"
        }
      ],
      "stateMutability": "nonpayable",
      "type": "function"
    },
    {
      "inputs": [
        {
          "internalType": "address",
          "name": "newOwner",
          "type": "address"
        }
      ],
      "name": "transferOwnership",
      "outputs": [],
      "stateMutability": "nonpayable",
      "type": "function"
    }
  ],
  "bytecode": "0x608060405234801561001057600080fd5b50604051610f67380380610f6783398101604081905261002f9161014a565b806040518060400160405280600e81526020016d26b7b737b837b63c902a37b5b2b760911b815250604051806040016040528060048152602001634d4f4e4f60e01b81525081600390816100839190610219565b5060046100908282610219565b5050506001600160a01b0381166100c157604051631e4fbdf760e01b81526000600482015260240160405180910390fd5b6100ca816100f8565b506001600160a01b0381166100f25760405163d92e233d60e01b815260040160405180910390fd5b506102d7565b600580546001600160a01b038381166001600160a01b0319831681179093556040519116919082907f8be0079c531659141344cd1fd0a4f28419497f9722a3daafe3b4186f6b6457e090600090a35050565b60006020828403121561015c57600080fd5b81516001600160a01b038116811461017357600080fd5b9392505050565b634e487b7160e01b600052604160045260246000fd5b600181811c908216806101a457607f821691505b6020821081036101c457634e487b7160e01b600052602260045260246000fd5b50919050565b601f82111561021457806000526020600020601f840160051c810160208510156101f15750805b601f840160051c820191505b8181101561021157600081556001016101fd565b50505b505050565b81516001600160401b038111156102325761023261017a565b610246816102408454610190565b846101ca565b6020601f82116001811461027a57600083156102625750848201515b600019600385901b1c1916600184901b178455610211565b600084815260208120601f198516915b828110156102aa578785015182556020948501946001909201910161028a565b50848210156102c85786840151600019600387901b60f8161c191681555b50505050600190811b01905550565b610c81806102e66000396000f3fe608060405234801561001057600080fd5b50600436106101375760003560e01c806370a08231116100b8578063a9059cbb1161007c578063a9059cbb146102ac578063b7127e41146102bf578063c6b05266146102d2578063dd62ed3e146102e5578063f2fde38b1461031e578063ff502adb1461033157600080fd5b806370a082311461023b578063715018a61461026457806379cc67901461026c5780638da5cb5b1461027f57806395d89b41146102a457600080fd5b8063313ce567116100ff578063313ce567146101ce57806340c10f19146101dd57806342966c68146101f25780634bafce22146102055780636b5cc6d91461022857600080fd5b806306fdde031461013c578063095ea7b31461015a5780631417b82a1461017d57806318160ddd146101a957806323b872dd146101bb575b600080fd5b610144610341565b6040516101519190610ab1565b60405180910390f35b61016d610168366004610b1b565b6103d3565b6040519015158152602001610151565b61016d61018b366004610b45565b6001600160a01b031660009081526007602052604090205460ff1690565b6002545b604051908152602001610151565b61016d6101c9366004610b67565b6103ed565b60405160128152602001610151565b6101f06101eb366004610b1b565b610411565b005b6101f0610200366004610ba4565b610491565b61016d610213366004610b45565b60076020526000908152604090205460ff1681565b6101f0610236366004610b45565b61049e565b6101ad610249366004610b45565b6001600160a01b031660009081526020819052604090205490565b6101f06105d5565b6101f061027a366004610b1b565b6105e9565b6005546001600160a01b03165b6040516001600160a01b039091168152602001610151565b6101446105fe565b61016d6102ba366004610b1b565b61060d565b6101f06102cd366004610b45565b61061b565b60065461028c906001600160a01b031681565b6101ad6102f3366004610bbd565b6001600160a01b03918216600090815260016020908152604080832093909416825291909152205490565b6101f061032c366004610b45565b61069c565b6101ad685150ae84a8cdf0000081565b60606003805461035090610bf0565b80601f016020809104026020016040519081016040528092919081815260200182805461037c90610bf0565b80156103c95780601f1061039e576101008083540402835291602001916103c9565b820191906000526020600020905b8154815290600101906020018083116103ac57829003601f168201915b5050505050905090565b6000336103e18185856106d7565b60019150505b92915050565b6000336103fb8582856106e9565b610406858585610768565b506001949350505050565b6006546001600160a01b0316331480159061043757506005546001600160a01b03163314155b1561045c57604051634a0bfec160e01b81523360048201526024015b60405180910390fd5b6001600160a01b0382166104835760405163d92e233d60e01b815260040160405180910390fd5b61048d82826107c7565b5050565b61049b33826107fd565b50565b6006546001600160a01b031633148015906104c457506005546001600160a01b03163314155b156104e457604051634a0bfec160e01b8152336004820152602401610453565b6001600160a01b03811661050b5760405163d92e233d60e01b815260040160405180910390fd5b6001600160a01b03811660009081526007602052604090205460ff16156105505760405163706547ad60e01b81526001600160a01b0382166004820152602401610453565b6001600160a01b0381166000908152600760205260409020805460ff1916600117905561058681685150ae84a8cdf000006107c7565b806001600160a01b03167f324cb0062138d65997c86cd3012489ceb351d602f2f55c7408306e8040c79f3f685150ae84a8cdf000006040516105ca91815260200190565b60405180910390a250565b6105dd610833565b6105e76000610860565b565b6105f48233836106e9565b61048d82826107fd565b60606004805461035090610bf0565b6000336103e1818585610768565b610623610833565b6001600160a01b03811661064a5760405163d92e233d60e01b815260040160405180910390fd5b600680546001600160a01b038381166001600160a01b0319831681179093556040519116919082907f13da884af101d5ec272cfc208641837648f82aad8b56a1611d2d9757f73189f290600090a35050565b6106a4610833565b6001600160a01b0381166106ce57604051631e4fbdf760e01b815260006004820152602401610453565b61049b81610860565b6106e483838360016108b2565b505050565b6001600160a01b03838116600090815260016020908152604080832093861683529290522054600019811015610762578181101561075357604051637dc7a0d960e11b81526001600160a01b03841660048201526024810182905260448101839052606401610453565b610762848484840360006108b2565b50505050565b6001600160a01b03831661079257604051634b637e8f60e11b815260006004820152602401610453565b6001600160a01b0382166107bc5760405163ec442f0560e01b815260006004820152602401610453565b6106e4838383610987565b6001600160a01b0382166107f15760405163ec442f0560e01b815260006004820152602401610453565b61048d60008383610987565b6001600160a01b03821661082757604051634b637e8f60e11b815260006004820152602401610453565b61048d82600083610987565b6005546001600160a01b031633146105e75760405163118cdaa760e01b8152336004820152602401610453565b600580546001600160a01b038381166001600160a01b0319831681179093556040519116919082907f8be0079c531659141344cd1fd0a4f28419497f9722a3daafe3b4186f6b6457e090600090a35050565b6001600160a01b0384166108dc5760405163e602df0560e01b815260006004820152602401610453565b6001600160a01b03831661090657604051634a1406b160e11b815260006004820152602401610453565b6001600160a01b038085166000908152600160209081526040808320938716835292905220829055801561076257826001600160a01b0316846001600160a01b03167f8c5be1e5ebec7d5bd14f71427d1e84f3dd0314c0f7b2291e5b200ac8c7c3b9258460405161097991815260200190565b60405180910390a350505050565b6001600160a01b0383166109b25780600260008282546109a79190610c2a565b90915550610a249050565b6001600160a01b03831660009081526020819052604090205481811015610a055760405163391434e360e21b81526001600160a01b03851660048201526024810182905260448101839052606401610453565b6001600160a01b03841660009081526020819052604090209082900390555b6001600160a01b038216610a4057600280548290039055610a5f565b6001600160a01b03821660009081526020819052604090208054820190555b816001600160a01b0316836001600160a01b03167fddf252ad1be2c89b69c2b068fc378daa952ba7f163c4a11628f55a4df523b3ef83604051610aa491815260200190565b60405180910390a3505050565b602081526000825180602084015260005b81811015610adf5760208186018101516040868401015201610ac2565b506000604082850101526040601f19601f83011684010191505092915050565b80356001600160a01b0381168114610b1657600080fd5b919050565b60008060408385031215610b2e57600080fd5b610b3783610aff565b946020939093013593505050565b600060208284031215610b5757600080fd5b610b6082610aff565b9392505050565b600080600060608486031215610b7c57600080fd5b610b8584610aff565b9250610b9360208501610aff565b929592945050506040919091013590565b600060208284031215610bb657600080fd5b5035919050565b60008060408385031215610bd057600080fd5b610bd983610aff565b9150610be760208401610aff565b90509250929050565b600181811c90821680610c0457607f821691505b602082108103610c2457634e487b7160e01b600052602260045260246000fd5b50919050565b808201808211156103e757634e487b7160e01b600052601160045260246000fdfea2646970667358221220c3fe8be6e21fe81e22c5594ccb727b4f620a3deff4d9061dbadb336fbca4485d64736f6c634300081c0033",
  "linkReferences": {},
  "deployedLinkReferences": {}
}